S01400005175616C54657374534350492E73726563AE
S1130000A1C00000BEC00000BCC00000BAC0000017
S1130010B8C00000B6C00000B4C00000B2C0000008
S1130020B0C00000AEC000000C9404160C94CD16B1
S1130030A8C00000A6C00000A4C00000A2C0000028
S1130040A0C000009EC000009CC000009AC0000038
S113005098C0000096C0000094C0000092C0000048
S113006090C000008EC000008CC000008AC0000058
S113007088C0000086C0000084C0000082C0000068
S113008080C000007EC000007CC000007AC0000078
S113009078C0000076C0000015022D02310238023B
S11300A053025A025E023C02430247024B17761780
S11300B06A1876176A18B917DC176A1835184518BC
S11300C0A91AD21A0B1B391B721B941BBB1B1C03D2
S11300D04C00550046004100200054004D004300F0
S11300E02000440065006D006F0000001803440008
S11300F0650061006E002000430061006D00650032
S113010072006100000004030904090227000101D0
S113011000C0320904000003FE03010007050402C5
S11301204000050705830240000507058203080017
S1130130FF1201100100000008EB0365200100011B
S113014002DC010011241FBECFEFD0E2DEBFCDBF21
S113015014E0A0E0B1E0E8ECF9E400E00BBF02C079
S113016007900D92AC31B107D9F726E0ACE1B4E0C9
S113017001C01D92AB34B207E1F70E94891D0C94B3
S1130180E2243ECF0F931F93CF93DF93EC018B01B7
S113019044E050E060E0CED1EE89FF89309741F031
S11301A00190F081E02D309719F0B801CE01099546
S11301B0DF91CF911F910F9108954D9677C00895C7
S11301C09F92AF92BF92CF92DF92EF92FF920F93E2
S11301D01F93CF93DF9300D0CDB7DEB75C017B01D3
S11301E04115510539F0232B29F46FEF70E0CA0152
S11301F00E94A10FFA82E9828501035E1F4FBE01AE
S11302006F5F7F4FC8015ED0982E81110EC0BE0172
S11302106F5F7F4FC80186D082EA9EEF9A838983FD
S1130220BE016F5F7F4FC8014DD00EE111E00F2E6C
S1130230F4E5CF2EF1E0DF2EF02DF80180819181DD
S11302408E159F0554F082819381E816F9062CF0EF
S11302504481558162E0C5016DD10A5F1F4F0C15C1
S11302601D0559F7B701C5018DDF911004C062EA7D
S11302707EEFC50187DFA114B10421F081E0D5012F
S11302805C968C930F900F90DF91CF911F910F91FB
S1130290FF90EF90DF90CF90BF90AF909F90089524
S11302A020E030E040E050E08BCF0895FC01118263
S11302B01082138212821582148271876087578399
S11302C046830895CF93DF93FC0124813581868191
S11302D097812817390701F161157105F9F0A0819B
S11302E0B181AA0FBB1F80859185A80FB91FEB01AF
S11302F0888199818D939C938081918101966681F7
S113030077810E94921D91838083848195810196D7
S11303109583848381E003C080E001C080E0DF91A5
S1130320CF910895CF93DF93FC01EB0184819581F4
S1130330892BF1F06681778180819181860F971FE7
S113034001970E94921D91838083209751F0880F1A
S1130350991FA085B185A80FB91F8D919C91998390
S113036088838481958101979583848381E001C08A
S113037080E0DF91CF9108956A3058F4009761F0DE
S1130380E62FF0E0EE0FFF1FE80FF91F27A130A5BD
S113039005C020E030E002C020E030E040955095F8
S11303A0422353231AC008954A3098F4009789F0E1
S11303B0E42FF0E0EE0FFF1FE80FF91F07A0F0A5F0
S11303C0E02D6E237F23672B21F0A90160E0B2C0EA
S11303D00895A90160E0D0CF0895EF92FF920F93A2
S11303E01F93CF93DF93EC017A016A3008F087C042
S11303F0009709F484C0062F10E0D801AA0FBB1F90
S1130400A80FB91F97964D915C9198979896FC9276
S1130410EE929797862F90E08A30910508F06FC08E
S1130420FC01E45BFF4F0C94C71D89A59AA58F7B43
S11304308E219F21892B71F06894E6F8000F111F1B
S1130440FE01E00FF11FF0A6E7A24E155F0509F0CB
S113045041C055C0E894E6F84CC060E0CE0156D0E7
S113046048C020E230E043E0B701CE019DDF41C047
S113047062E0CE014BD03DC028E030E048E0B70157
S1130480CE0192DF36C067E0CE0140D032C0409545
S113049050954E215F218DA99EA9482B592B67E0C9
S11304A0CE019BDF26C020E830E045E0B701CE0155
S11304B07BDF1FC064E0CE0129D01BC0409550955E
S11304C04E215F218FA598A9482B592B64E0CE01BA
S11304D084DF0FC0EE89FF89309789F00480F581AD
S11304E0E02D309761F04FA158A561E0CE01099548
S11304F006C0000F111FC00FD11FF8A6EFA2DF9195
S1130500CF911F910F91FF90EF9008956A3058F4A6
S1130510009761F0E62FF0E0EE0FFF1FE80FF91FE0
S113052047A150A505C040E050E002C040E050E0C3
S113053054CF08956A3058F4009761F0E62FF0E044
S1130540EE0FFF1FE80FF91F27A130A505C020E01B
S113055030E002C020E030E0422B532B3ECF089520
S1130560FC018081918124813581280F391F81E02C
S113057090E0428153814217530710F480E090E0E9
S113058008950F931F93CF93DF93EC0100E010E0E5
S113059005C03196FB83EA830F5F1F4FCE01E0DF76
S11305A0892B59F4EA81FB818081082E000C990B78
S11305B08032910571F3099761F3C801DF91CF91FE
S11305C01F910F910895CF93DF93EC01C9DF00973A
S11305D079F4EA81FB81208130E0205331092A300B
S11305E0310540F43196FB83EA8381E090E002C058
S11305F080E090E0DF91CF9108950F931F93CF9304
S1130600DF93EC0100E010E005C03196FB83EA8340
S11306100F5F1F4FCE01A4DF892B39F4EA81FB81E0
S1130620808190E0C0970A9780F3C801DF91CF9151
S11306301F910F910895CF93DF93EC0191DF009701
S113064091F4EA81FB812081022E000C330B2B32C2
S1130650310519F02D32310541F43196FB83EA83DB
S113066081E090E002C080E090E0DF91CF910895B6
S11306701F93CF93DF93EC01162F72DF009759F489
S1130680EA81FB812081121308C03196FB83EA833F
S113069081E090E002C080E090E0DF91CF911F9173
S11306A00895EF92FF920F931F93CF93DF938C01E2
S11306B0E12CF12C07C02196F801D383C283FFEF0C
S11306C0EF1AFF0AC8014CDF892B49F4F801C281F3
S11306D0D381888190E00E946021892B61F7C70152
S11306E0DF91CF911F910F91FF90EF900895CF92DA
S11306F0DF92FF920F931F93CF93DF938C01FC0142
S1130700C280D3802DDF892B19F5F601808190E01A
S11307100E946021892B21F1C6010196F80193837F
S1130720828304C02196F801D383C283C80118DFF1
S1130730892B71F4F801C281D381F8808F2D90E068
S11307400E945321892B71F7FFE5FF1659F308C066
S1130750F801828193819601281B390BC90105C0D8
S1130760F801828193818C199D09DF91CF911F91AA
S11307700F91FF90DF90CF900895FF920F931F93F6
S1130780CF93DF938C01F62E24C0F801C281D3816C
S113079088818F3709F030F48F1531F02196D38397
S11307A0C28317C08F1119C0CE010196F80193833B
S11307B08283C801D5DE892B41F48981F81205C0F2
S11307C02296F801D383C28304C0F801D383C28381
S11307D004C0C801C5DE892BC1F2DF91CF911F91FE
S11307E00F91FF900895CF93DF93EC01B9DE00974A
S11307F059F4EA81FB8120812A3341F43196FB8349
S1130800EA8381E090E002C080E090E0DF91CF9144
S11308100895A6CE08950F931F93CF93DF938C0171
S1130820EB01FC01828193819A838983C801A9DE4B
S1130830F8018281938129813A81821B930B9C83E5
S11308408B83181619061CF427E1288302C02AE1B9
S11308502883DF91CF911F910F910895EF92FF921A
S11308600F931F93CF93DF93EC018B018A819B81BC
S1130870FB01928381838AE18083CE0171DE892B1F
S113088009F065C0EA81FB8180818A3209F05FC08A
S11308903196FB83EA83CE012ADF892B09F04FC00E
S11308A084E1F801808336C086E1F801808332C098
S11308B083E1F80180832EC0CE0119DF9923A4F0CF
S11308C0892B01F1CE018FDF892BB1F70DC099235C
S11308D05CF081E090E0EF2811F480E090E09195E5
S11308E0819591099AF40EC06FE3CE01C1DE18160A
S11308F0190624F485E1F80180830CC081E1F80134
S1130900808308C082E1F801808304C0F8018081FB
S11309108A3151F08A819B81F80121813281821BC5
S1130920930B9483838307C0F8011482138281811B
S113093092819B838A83F8018381948112C06FE33F
S1130940CE0196DE181619060CF4AECFB1CFCE0147
S11309504ADF7C01CE01CBDE181619060CF4B2CFA7
S1130960B6CFDF91CF911F910F91FF90EF90089533
S1130970CF92DF92FF920F931F93CF93DF938C015B
S11309806B01FC0182819381FB0192838183C80105
S1130990E7DD892B19F5F801C281D381888190E0C4
S11309A00E946021892BD1F02196F801D383C28360
S11309B004C02196F801D383C283C801D1DD892BF9
S11309C069F4F801C281D381F8808F2D90E00E94F0
S11309D05321892B71F7FFE5FF1659F3F801828142
S11309E09381F60121813281821B930B948383834B
S11309F0181619061CF429E0208303C02AE1F60125
S1130A002083DF91CF911F910F91FF90DF90CF90C2
S1130A100895EF92FF920F931F93CF93DF93EC010E
S1130A208B018A819B81FB0192838183CE0103DE4A
S1130A30CE01E3DD7C016EE2CE011ADE892B21F0CA
S1130A40CE01DBDDE80EF91EEF28E1F0EA80FB8041
S1130A50CE0197DDCE0184DD892B89F4EA81FB8107
S1130A6080818F7D853459F43196FB83EA83CE01EE
S1130A7088DDCE01E0DDCE01C0DD892B41F4FB82AF
S1130A80EA8205C0F801818192819B838A838A81ED
S1130A909B81F80121813281821B930B9483838390
S1130AA0181619061CF42AE0208303C02AE1F80171
S1130AB02083DF91CF911F910F91FF90EF900895C4
S1130AC00F931F93CF93DF93EC018B018A819B815A
S1130AD0FB01928381836FE2CE01CADDCE01E1DDA9
S1130AE0892BD1F06DE2CE01C3DDCE016CDDCE01E8
S1130AF037DD892B89F4EA81FB8180818E52823033
S1130B0058F43196FB83EA83CE01CBDD6DE2CE014E
S1130B10AFDDCE0158DDEBCFF801218132818A812E
S1130B209B81821B930B94838383181619061CF4F0
S1130B308CE0808307C08AE1F80180833B832A83A9
S1130B4014821382F80183819481DF91CF911F91E4
S1130B500F910895AF92BF92CF92DF92EF92FF92DE
S1130B600F931F93CF93DF93EC018B018A819B81B9
S1130B70FB019283818363E2CE017ADD892B09F440
S1130B807BC0CE01EDDC5C01892B09F075C0EA81E4
S1130B90FB8180818F7D8834F9F43196FB83EA836D
S1130BA0C12CD12C08C0FFEFEF1AFF0AFB82EA82A6
S1130BB02FEFC21AD20ACE01D3DC892B49F4EA8082
S1130BC0FB80F701808190E00E946721892B59F70F
S1130BD086E0F80180833DC08135E9F43196FB83DA
S1130BE0EA83C12CD12C06C03196FB83EA83FFEF44
S1130BF0CF1ADF0ACE01B4DC892B49F4EA81FB81E8
S1130C008081082E000C990BC097089768F387E041
S1130C10F80180831EC0823479F53196FB83EA8320
S1130C20C12CD12C06C03196FB83EA83FFEFCF1A87
S1130C30DF0ACE0195DC892B49F4EA81FB818081AE
S1130C40082E000C990BC097029768F388E0F8010E
S1130C508083CD2889F0F801218132812E5F3F4FB6
S1130C60328321838A819B81821B930B94838383A8
S1130C70181619066CF010C08AE1F801808381818E
S1130C8092819B838A8314821382A12CB12C04C089
S1130C905C01F2E0AF0EB11CC501DF91CF911F9151
S1130CA00F91FF90EF90DF90CF90BF90AF90089599
S1130CB00F931F93CF93DF938C01EB01DC0112960A
S1130CC08D919C9113979A838983C80149DC892B60
S1130CD009F05AC0D8011296ED91FC9113978081C6
S1130CE0823241F531961396FC93EE9312978FE07E
S1130CF0888362E2C80141DDC80132DC892BA1F49A
S1130D00D8011296ED91FC9113978081823261F49F
S1130D1031961396FC93EE93129789819A81E81B7E
S1130D20F90BFC83EB8330C089819A81F8019383AA
S1130D3082832AC0873241F53196D8011396FC93F9
S1130D40EE9312978EE0888367E2C80116DDC8012E
S1130D5007DC892BA1F4D8011296ED91FC9113972D
S1130D608081873261F431961396FC93EE93129747
S1130D7089819A81E81BF90BFC83EB8305C0898187
S1130D809A81F8019383828329813A81D80112964A
S1130D908D919C911397821B930B9C838B831816C4
S1130DA0190644F08AE1888313963C932E93129794
S1130DB01C821B828B819C81992314F480E090E037
S1130DC0DF91CF911F910F910895AF92BF92CF926F
S1130DD0DF92EF92FF920F931F93CF93DF93EC0177
S1130DE07B01CA80DB80FB01D282C18263E240DCEA
S1130DF0892B09F490C0CE01B3DB009709F06AC0D7
S1130E00EA81FB81A0802A2D0A2C000C330B21538C
S1130E1031092930310508F05DC00A2C000CBB08EB
S1130E2080E3A81AB1083196FB83EA831A141B04E1
S1130E304CF500E010E0CE0193DB892B29F5EA8123
S1130E40FB818081282F30E0205331092A3031057D
S1130E50D8F49801220F331F000F111F000F111F28
S1130E60000F111F020F131F082E000C990BC097BF
S1130E70080F191F3196FB83EA83E1E0AE1AB1082B
S1130E80D1F604C000E010E0AB28B9F48A819B815C
S1130E90800F911F9B838A83488159812C813D81D6
S1130EA0240F351F2817390740F1801B910BF701D8
S1130EB092838183148303831AC0CE0151DB21E022
S1130EC030E0892B11F020E030E088279927821B3D
S1130ED0930B0AC021E030E0892B11F020E030E0D0
S1130EE088279927821B930B8130910521F48DE08B
S1130EF0F701808319C0892B71F48AE1F70180839B
S1130F0014821382288139818C819D81820F931FE1
S1130F109B838A8309C08AE1F7018083818192815E
S1130F209B838A8314821382F701818192818C19B5
S1130F309D0923813481820F931FDF91CF911F91EB
S1130F400F91FF90EF90DF90CF90BF90AF900895F6
S1130F500F931F93CF93DF93EC018B018A819B81C5
S1130F60DB0112969C938E931197CE01F9DA892BAB
S1130F70B9F5EA81FB818081883291F53196FB8352
S1130F80EA8303C03196FB83EA83CE01E9DA892B35
S1130F9081F5EA81FB812081822F022E000C990BBE
S1130FA0AC01405251094F35510550F482970297D4
S1130FB038F089ED820F833018F02B3319F719C0FC
S1130FC02932B9F43196FB83EA83D80111968D91C5
S1130FD09C911297E81BF90B1496FC93EE931397CC
S1130FE0F80183819481181619061CF480E180832A
S1130FF00DC08AE1D8018C9311968D919C91129722
S11310009B838A8314961C921E921397F801838102
S11310109481DF91CF911F910F910895CF93DF9326
S1131020EB01FC01228133813A8329836CE220DBCA
S1131030892B31F081E090E09C838B83188204C07B
S11310401C821B828AE188838B819C81DF91CF91F2
S11310500895CF93DF93EB01FC01228133813A831E
S113106029836BE305DB892B31F081E090E09C83DD
S11310708B83888304C01C821B828AE188838B81D2
S11310809C81DF91CF9108950F931F93CF93DF93AA
S11310908C01EB01FC01828193819A8389836DE049
S11310A0C801E6DA6AE0C801E3DA29813A81F80185
S11310B082819381821B930B9C838B831816190660
S11310C01CF485E0888307C08AE18883F8013383B0
S11310D022831C821B828B819C81DF91CF911F9183
S11310E00F9108954115510551F0DC015696ED918B
S11310F0FC9157970280F381E02D0995089580E0D3
S113110090E00895FB01BA01452B29F46AEC7EEFC7
S1131110C7D820E03DC080818830E1F028F48630D3
S113112039F0873071F033C08A508230E0F02FC03C
S113113040E18181928183D621E0892B49F520E029
S113114027C048E0818192817AD621E0892B01F57C
S113115020E01EC042E08181928171D621E0892B7A
S1131160B9F420E015C0222349F04AE0818192813C
S113117041D621E0892B61F420E00AC04AE0818154
S113118092815DD621E0892B19F420E001C020E092
S1131190822F08958F929F92AF92BF92CF92DF9247
S11311A0EF92FF920F931F93CF93DF93CDB7DEB7E8
S11311B0FC0186E5DF011D928A95E9F7718360835E
S11311C0578B468B34AF23AFDF01A45BBF4F11961F
S11311D01C930E9312961196FC92EE92129611960F
S11311E0DC92CE921296AD92BC92978286828F85C3
S11311F0988993838283158214824B895C896989D7
S11312007A89CF010E94DD00DF91CF911F910F9168
S1131210FF90EF90DF90CF90BF90AF909F908F9012
S11312200895FC0190819A3059F020F4965093303F
S113123028F406C09B3011F4862F089580E00895A9
S113124081E0089521E05ECF0895AF92BF92CF92DE
S1131250DF92EF92FF920F931F93CF93DF935C0182
S11312607B0169014115510511F0232B31F46AEC1E
S11312707EEFC50115D880E039C0FB01808189303B
S113128041F5FA0180819181009751F1EA01FC0155
S113129001900020E9F73197BF01681B790BF70132
S11312A0238134814181528100E010E026D78823D4
S11312B051F04A815B816C817D81F60140835183C9
S11312C06283738313C02696888199810097F9F607
S11312D007C068E97FEFC5010E94500180E006C0A5
S11312E060E27FEFC5010E94500180E0DF91CF9161
S11312F01F910F91FF90EF90DF90CF90BF90AF9030
S113130008958F929F92AF92BF92CF92DF92EF9205
S1131310FF920F931F93CF93DF9300D000D01F92BF
S1131320CDB7DEB77C015B01BE016F5F7F4F73DA1F
S11313306C01B501C7010EDC8C01892B91F5B50157
S1131340C70116DB8C01892B99F5B501C70161DB57
S11313508C01892BE1F0BE016F5F7F4FC7015BDA1F
S11313604C01BE016F5F7F4FC701AADB1816190637
S1131370FCF4880D991DF50103811481080F191FD0
S1131380148303838BE080830115110589F4B5016F
S1131390C7018EDC8C01892B59F4B501C70115DD19
S11313A08C010115110521F4B501C701D1DD8C01B2
S11313B0BE016F5F7F4FC7012EDA8C0D9D1D800F1C
S11313C0911F0F900F900F900F900F90DF91CF917E
S11313D01F910F91FF90EF90DF90CF90BF90AF904F
S11313E09F908F900895EF92FF920F931F93CF9346
S11313F0DF938C01EB01209731F46AEC7EEF0E94BD
S1131400500180E059C01C821B821A8219828AE131
S11314108883F8012285338586859785820F931FFB
S1131420248535852817390768F0442339F063E9A2
S11314307FEFC8010E94500180E03EC089E08883AC
S113144080E03AC07801FAE0EF0EF11CF801828DD9
S1131450938D892B91F0C701E1DD8881882369F0A0
S11314601C821B821A8219828AE1888369E97FEFD0
S1131470C8010E94500180E01FC0F801828D938D45
S11314800196938F828FBE01C7013BDF888186302E
S113149028F08C3080F08D50843068F01C821B82E0
S11314A01A8219828AE1888369E67FEFC8010E9463
S11314B0500180E001C081E0DF91CF911F910F9135
S11314C0FF90EF900895CF92DF92EF92FF920F93E7
S11314D01F93CF93DF9300D000D01F92CDB7DEB718
S11314E07C018B01C22E672B31F46AEC7EEF0E94E3
S11314F0500110E02BC0BE016F5F7F4F74DF882363
S113150021F160E0CE0101968CDED82E882349F0CB
S11315102C2DA801BE016F5F7F4FC701F3DD182F8B
S113152015C061E0CE0101967CDE182F882339F0C6
S113153066E77FEFC7010E9450011D2D07C068E9CF
S11315407FEFC7010E94500101C010E0812F0F906E
S11315500F900F900F900F90DF91CF911F910F91EB
S1131560FF90EF90DF90CF90089521E0ACCF0895E5
S1131570EF92FF920F931F93CF93DF93CDB7DEB714
S113158029970FB6F894DEBF0FBECDBF8C017B0147
S1131590672B31F46AEC7EEF0E94500180E03CC07E
S11315A0BE016F5F7F4F1FDF882399F189818A30E5
S11315B0B1F4AE014A5F5F4FBE016F5F7F4FC80158
S11315C041DE81E04E815F8168857985452B462B1C
S11315D0472B09F480E0F701808381E01DC09E0160
S11315E02A5F3F4F46E651E0BE016F5F7F4FC8015F
S11315F02CDE882381F081E04E815F8168857985C6
S1131600452B462B472B09F480E0F701808381E0CA
S113161003C080E001C080E029960FB6F894DEBFD5
S11316200FBECDBFDF91CF911F910F91FF90EF902F
S11316300895AF92BF92CF92DF92EF92FF920F93F1
S11316401F93CF93DF9300D000D01F92CDB7DEB7A6
S11316506C018B015A018FEF9FEFFB01948383830D
S113166088E18083F60182819381FB0192838183E7
S113167014821382E12CF12C07C0F80123813481F8
S1131680820F931F94838383BE016F5F7F4FC601D4
S113169038DE29812A3191F0F80123813481820FC7
S11316A0931F94838383FFEFEF1AFF0ABE016F5FDA
S11316B07F4FC601B3DC009701F709C08AE1F80146
S11316C0808314821382EE24EA94FE2C08C0F8016D
S11316D083819481019619F4F80114821382A11470
S11316E0B10419F0F501F182E082F801838194815B
S11316F00F900F900F900F900F90DF91CF911F914B
S11317000F91FF90EF90DF90CF90BF90AF9008952E
S1131710EF92FF920F931F93CF93DF93CDB7DEB772
S11317202B970FB6F894DEBF0FBECDBF8C017C8320
S11317306B837A8369835E834D83FC0113861286EF
S1131740BE01695F7F4FCE01019665D8B801CE0115
S1131750019684D89923ECF0BE01695F7F4FCE01D6
S1131760019659D81816190654F4A801465F5F4F1C
S1131770B8016B5F7F4FCE0101965BDF18C08B8190
S11317809C81F80111861086978386838AE185837C
S11317900EC029813A81F801148213823283218395
S11317A08AE1808311861086378326838583BE0170
S11317B0695F7F4FCE01019667DC892BC1F5BE01BD
S11317C0695F7F4FCE01019644DC7C01CE01019616
S11317D020D8892BB1F4EF28A1F48B819C81019648
S11317E09C838B8381E090E0F8019483838389E177
S11317F0808389819A8111861086978386838AE102
S113180085838F81813021F482E0F801848708C0C8
S1131810853021F481E0F801848702C0F801148640
S11318208B819C8129813A81821B930B05C0CE0157
S113183001960E940904E5CF2B960FB6F894DEBFFB
S11318400FBECDBFDF91CF911F910F91FF90EF900D
S113185008952F923F924F925F926F927F928F9250
S11318609F92AF92BF92CF92DF92EF92FF920F932B
S11318701F93CF93DF93CDB7DEB762970FB6F8947B
S1131880DEBF0FBECDBF2C017B876A871A018AE1B8
S113189089831B821A821D821C824114510409F41B
S11318A02FC1C201CF969F878E87D20159961C9271
S11318B01E925897B1E0B88B9D878C8745969A8B7A
S11318C0898BA1016A857B858E859F8521DF3C01FB
S11318D0D201DF968C91893139F46BE97FEFC20133
S11318E00E945001188AE2C0EC85FD8583819481B1
S11318F0181619060CF0DAC06E857F85CE010196A4
S1131900C3D2AC85BD8513960D90BC91A02DBF8329
S1131910AE83EC85FD850180F281E02DF987E887AF
S1131920D201AD90BC90F50180819181009709F4BA
S1131930EFC06894882483F8912CC12CD12C7601B3
S113194000E010E020E030E04E815F816885798519
S11319502AD4882379F1D2011996BC92AE921897B1
S1131960EC85FD85868197811B969C938E931A97AF
S11319701D969C938E931C97808591851F969C93AE
S11319808E931E978181928155969C938E93549742
S113199053961C921E9252978381948151969C93E4
S11319A08E93509758968D919C91599718161906B5
S11319B084F015C0D201AD90BC90A80CB91CF501FF
S11319C080819181F8E08F0E911C009709F0B5CFCA
S11319D09FC041E050E061E671E0C20183DBD201C7
S11319E05C961C925C9759961C921E9258975B9633
S11319F01C921E925A97E989FA8911821082D501A4
S1131A001296ED91FC911397309709F48BC0C201A3
S1131A100995813059F0F201848D811122C068E367
S1131A207FEFC2010E94500180E005C0D2015C96A4
S1131A308C91B1E08B27F201428553852685378549
S1131A40240F351F448555854217530758F4948D48
S1131A50911108C064E97FEFC2010E94500180E047
S1131A6001C080E0F889F823F88B85E0EC85FD85DA
S1131A70DE01119601900D928A95E1F717C0A90134
S1131A802115310559F09A012150310982918D3087
S1131A90B1F38A30A1F39A0101C093014A855B85B1
S1131AA06FE87FEFC2010E94E000188A6214730499
S1131AB04CF48A859B85860D971D9B878A872618FB
S1131AC03708FFCED20158968D919C9159971816DC
S1131AD01906C4F442E050E063E671E0C20102DB9F
S1131AE0D2015696ED91FC915797309769F0068094
S1131AF0F781E02D309751F0C2010995888921C002
S1131B0080E01FC088891DC088891BC0888919C0CE
S1131B10A3016114710409F4C0CFEA85FB85E60DC5
S1131B20F71DB1CFF2012285338586859785820F13
S1131B30931F248535852817390708F48BCF81E056
S1131B4091CF62960FB6F894DEBF0FBECDBFDF9182
S1131B50CF911F910F91FF90EF90DF90CF90BF90A6
S1131B60AF909F908F907F906F905F904F903F9039
S1131B702F900895BF92CF92DF92EF92FF920F932E
S1131B801F93CF93DF938C01EA012097D1F4DC01FA
S1131B901696ED91FC91179714968D919C9115973B
S1131BA0E80FF91F108214964D915C9115971696C3
S1131BB06D917C911797C8014CDEF801158214824F
S1131BC08FC0DC0114968D919C91159712962D91DE
S1131BD03C911397281B390B2150310924173507E1
S1131BE084F415961C921E9214971696ED91FC910E
S1131BF01797108265E97EEFC8010E94500180E0CA
S1131C006FC0F80126813781820F931F0E948221C1
S1131C10D80114968D919C911597C80FD91F1596CC
S1131C20DC93CE93149716968D919C911797C80FB9
S1131C30D91F1882C0E0D0E0BB24B3946801BFE38D
S1131C40CB0ED11C7801EBE4EE0EF11CD8011496F6
S1131C504D915C9115974C1B5D0B16966D917C9183
S1131C6017976C0F7D1FC60153DDC80FD91FF701ED
S1131C709081913019F5D80116966D917C91179742
S1131C80AE01C801E6DDB82EF80186819781448152
S1131C9055814C1B5D0BBC016C0F7D1F0E948B2179
S1131CA0D80114968D919C9115978C1B9D0B1596BC
S1131CB09C938E931497C0E0D0E0C8CFF80187AD11
S1131CC08A3111F4992359F0D80114968D919C917D
S1131CD01597C817D90708F4B9CF8B2D01C08B2DE0
S1131CE0DF91CF911F910F91FF90EF90DF90CF90F4
S1131CF0BF900895EF92FF920F931F93CF93DF93BA
S1131D00FC017B01672BE1F080818823A9F08F011E
S1131D100F5F1F4FC0E0D0E090E00E946121892B4B
S1131D2071F42196EC16FD0659F0F80181918F01AA
S1131D308111F2CF7E0104C0E12CF12C01C07E019F
S1131D40C701DF91CF911F910F91FF90EF900895FC
S1131D50EF92FF920F931F93CF93DF93680F791F36
S1131D6086179707C1F1EC012196FC010081002E32
S1131D70000C110B220B330B011511052105310544
S1131D8049F480E090E02FC080179107A207B307C1
S1131D9039F424C07E01F1E0EF1AF108E42FF52FA5
S1131DA08191082E000C990BAA0BBB0B0097A1057F
S1131DB0B10551F7C617D707A1F00991002E000C01
S1131DC0110B220B330B011511052105310511F7F8
S1131DD080E090E008C080E090E005C08E2D9F2D4B
S1131DE002C080E090E0DF91CF911F910F91FF90AE
S1131DF0EF900895EF92FF920F931F93CF93DF9389
S1131E0000D0CDB7DEB78C017B01042E000C550B3E
S1131E10BE016F5F7F4F0E941E1FF70160837183B5
S1131E208283938389819A81801B910B0F900F90F9
S1131E30DF91CF911F910F91FF90EF900895EF9252
S1131E40FF920F931F93CF93DF9300D0CDB7DEB7EC
S1131E508C017B01042E000C550BBE016F5F7F4F7C
S1131E600E944920F701608371838283938389816F
S1131E709A81801B910B0F900F90DF91CF911F914E
S1131E800F91FF90EF9008950F931F93CF93DF93DB
S1131E90EC016115710581F1FB01A181B2811097FB
S1131EA069F1238134812115310551F1E981FA81E8
S1131EB0309741F18B819C81009731F14C914F7E99
S1131EC04A3221F140814A3219F1009719F1AC01EB
S1131ED041505109E40FF51F10811A33E9F007C08E
S1131EE08A010150110992919A33B9F0A801411560
S1131EF05105B1F781E020C080E01EC080E01CC025
S1131F0080E01AC081E018C081E016C081E014C0EE
S1131F1081E012C081E010C0AC01FB01CD01841B43
S1131F20950B92838183240F351F34832383698126
S1131F307A810E948B2181E0DF91CF911F910F91D3
S1131F400895FC0161157105A1F08081882369F071
S1131F50319620E030E003C09191992349F02F5F3E
S1131F603F4F62177307C1F704C060E070E001C01F
S1131F70B901CB010895AF92BF92CF92DF92EF9255
S1131F80FF921F93CF93DF93EA01209701F1A82ECC
S1131F90B92EC62ED72EF50181915F0190E00E94E3
S1131FA07A217C01F60181916F0190E00E947A21EF
S1131FB0E81631F0FF249701281B3109C9010CC030
S1131FC0EE2041F0219739F780E090E005C080E0F1
S1131FD090E002C080E090E0DF91CF911F91FF90EC
S1131FE0EF90DF90CF90BF90AF9008956217730782
S1131FF049F49A01AB01B901BEDF21E0892B19F044
S113200020E001C020E0822F0895AF92BF92CF92CA
S1132010DF92EF92FF920F931F93CF93DF9300D041
S113202000D0CDB7DEB72617370708F44CC06901D6
S11320305A017B01AB01B5019EDF892B09F045C034
S113204001151105B9F4EC14FD0408F040C0F501C4
S1132050EE0DFF1D8081082E000C990BC0970A9786
S1132060C0F58FEFE81AF80AD501AE0DBF1DCA0CF2
S1132070DB1C24C0CE14DF0471F14AE0BE016F5FA3
S11320807F4FC5018E0D9F1DB5DE8E0D9F1DC81699
S1132090D90659F489819A81AB81BC81F801808386
S11320A09183A283B38381E019C080E017C0ED91CE
S11320B00E2E000CFF0BF0973A9778F4AC15BD0583
S11320C0B1F781E00BC080E009C080E007C081E087
S11320D005C080E003C081E001C080E00F900F9054
S11320E00F900F90DF91CF911F910F91FF90EF9080
S11320F0DF90CF90BF90AF9008956F927F928F92B0
S11321009F92AF92BF92CF92DF92EF92FF920F9382
S11321101F93CF93DF937C01EB016A015901209750
S1132120F9F03B0181E0681A7108F701E60DF71D2B
S113213080818332A9F4B301C701DCDDEC01950190
S1132140A601B301C70161DF811106C09501A60193
S1132150BE01C7015ADF02C081E090E0817014C063
S1132160BE01C701C7DD4C019501A601BE01C7012F
S11321703DDF811106C09501A601B401C70136DF18
S113218002C081E090E08170DF91CF911F910F91A7
S1132190FF90EF90DF90CF90BF90AF909F908F9083
S11321A07F906F9008952F923F924F925F926F921B
S11321B07F928F929F92AF92BF92CF92DF92EF92D3
S11321C0FF920F931F93CF93DF93CDB7DEB72C9776
S11321D00FB6F894DEBF0FBECDBF9C878B875B0123
S11321E03A8329831C830B83CF82D886E986FA86B7
S11321F0FC0101900020E9F731977F01E81AF90A00
S11322003701BA01C5019DDE2C01EB85FC85EE0D7D
S1132210FF1D319780818F3369F421E0421A510800
S1132220F501E40DF51D80818F3309F09BC131E088
S1132230631A7108AB85BC858C918B3559F4119662
S1132240BC87AB87B1E06B1A7108E1E0F0E0FE8374
S1132250ED8302C01E821D82AB85BC858C918A33BE
S113226031F41196BC87AB87B1E06B1A7108F501A4
S113227080818A3381F4F2E04F16510460F0D50175
S113228011968C918A3209F46FC1BFEFAB1ABB0A65
S1132290E1E04E1A5108212C312C73014FEB52E02E
S11322A0B3018B859C8554DD009729F07C01AB85B7
S11322B0BC85EA1AFB0A470144EC52E0B201C501AD
S11322C047DD009721F06C01CA18DB0801C06201E8
S11322D0181419045CF5EB85FC85EE0DFF1D319790
S11322E08081833231F5E981FA813097B1F02B8115
S11322F03C8122163306A0F48101000F111F000F48
S1132300111F0E0F1F1F8F819885A985BA85F801AB
S113231080839183A283B38305C000E010E002C0F0
S113232000E010E0FFEF2F1A3F0A05C000E010E0C4
S113233002C000E010E09601A501B7018B859C85E1
S1132340DCDE882309F4E2C02B853C852E0D3F1D7D
S11323503C872B8768187908F501EC0DFD1D920167
S11323602C193D096114710431F481E0232B09F423
S113237013C180E011C12115310509F045C0ED807C
S1132380FE808B859C859A83898383014FEB52E081
S1132390B30189819A81DCDC009729F08C01A98141
S11323A0BA810A1B1B0BC801E981FA81E00FF11FF6
S11323B020812B3519F02D3529F007C0BFEFEB1A1A
S11323C0FB0A03C0E1E0EE1AF1080F5F1F4F2981F9
S11323D03A81200F311F3A8329830196681A790ABA
S11323E0E114F10441F41614170444F4D9018C9156
S11323F08B3521F4CACF6114710439F681E0672862
S113240009F4CAC080E0C8C016141704BCF4AB8534
S1132410BC858C919081891311C08A3379F411960B
S1132420BC87AB87B1E06B1A71085F018FEFA81A04
S1132430B80A290191E0491A51082FCFA2E06A167F
S11324407104DCF1AB85BC8511968C911197908158
S1132450891333C09C919B3509F097C08A3309F0E6
S113246094C01296BC87AB87B2E06B1A71085F0107
S11324708FEFA81AB80A290191E0491A5108AD81D1
S1132480BE811196BE83AD8308CF8A33B1F48B85A8
S11324909C8502969C878B8792E0691A71085F017C
S11324A0AFEFAA1ABA0A2901B1E04B1A5108ED811B
S11324B0FE813197FE83ED83F0CE83E068167104CC
S11324C00CF454C0AB85BC8512968C911297908104
S11324D089134EC09C919D3509F04CC011969C9176
S11324E011979B3509F048C08A3309F047C0139609
S11324F0BC87AB87B3E06B1A71085F018FEFA81A32
S1132500B80A290191E0491A5108C7CEAB85BC85A8
S1132510AE0DBF1DBC87AB879C919D35E9F568184E
S1132520790811969C9111979A3351F51296BC87AC
S1132530AB87B2E06B1A7108ED81FE813197FE839F
S1132540ED83ABCE9B3541F5AB85BC8512969C9152
S113255012979A3309F51396BC87AB87B3E06B1ACD
S113256071089BCE80E018C080E016C080E014C0E3
S113257080E012C080E010C080E00EC080E00CC09B
S1132580E3E06E167104F4F607C0AB85BC859C913C
S11325909D3509F092CF79CF2C960FB6F894DEBF13
S11325A00FBECDBFDF91CF911F910F91FF90EF90A0
S11325B0DF90CF90BF90AF909F908F907F906F905F
S11325C05F904F903F902F900895292F332722300A
S11325D0310559F02330310569F02130310521F5F9
S11325E082E190E021E331E028C087E290E02AE034
S11325F031E023C099278130910551F018F00297FA
S113260069F017C0E6E0F1E0849190E09F0115C005
S1132610ECEEF0E0849190E09F010FC0EEECF0E06E
S1132620849190E09F0109C080E090E020E030E0D8
S113263004C080E090E020E030E0FA0131832083A0
S113264008958F929F92AF92BF92CF92DF92EF92B2
S1132650FF920F931F93CF93DF938C01EB016A01D9
S113266031D281113DC0C114D10439F0F601808109
S11326709181C81BD90B080F191F209781F1E12CF8
S1132680F12C0F2EF8EE8F2E912CF02D0F2EF1EF52
S1132690AF2EB12CF02DF401808185FD13C0808113
S11326A08E778083C114D10449F0F6018081918131
S11326B0E80EF91EF182E08285E012C003D288237D
S11326C051F00EC0F80181918F01F50180832197AB
S11326D0FFEFEF1AFF0A2097F1F680E001C080E0D7
S11326E0DF91CF911F910F91FF90EF90DF90CF90EA
S11326F0BF90AF909F908F9008958F929F92AF92CA
S1132700BF92CF92DF92EF92FF920F931F93CF93DA
S1132710DF938C01EB016A01D5D181113DC0C11455
S1132720D10439F0F60180819181C81BD90B080FBF
S1132730191F209781F1E12CF12C0F2EF8EE8F2E2A
S1132740912CF02D0F2EF1EFAF2EB12CF02DF401C2
S1132750808185FD13C080818B778083C114D1046F
S113276049F0F60180819181E80EF91EF182E08240
S113277085E012C0A7D1882351F00EC0F5018081F5
S1132780F80181938F012197FFEFEF1AFF0A209739
S1132790F1F680E001C080E0DF91CF911F910F91AD
S11327A0FF90EF90DF90CF90BF90AF909F908F906D
S11327B00895EF92FF920F931F93CF93DF9320918D
S11327C07704309178042617370758F0611571059E
S11327D039F4E8EEF0E020812E7720839B0101C0DC
S11327E09B01A82FB92F90E0E8EEF0E062EF70E0D3
S11327F00F2EF1EFEF2EF12CF02D11E000E02FC0A1
S113280080917004882309F441C0853009F440C0E4
S1132810808183FD3FC0808182FD31C0808180FF43
S11328201EC0EB01488159812115310581F04830E2
S1132830510568F48D91E7018883215031094F5F78
S11328405F4F2115310519F04830510599F7912F43
S11328504830510509F0902F80818E7780832115AF
S1132860310571F69111CCCF0AC080917004882390
S113287099F0853099F0808183FF03C011C0E8EEA0
S1132880F0E0808182FFF1CF80E00BC082E009C0DC
S113289083E007C081E005C082E003C083E001C09B
S11328A081E0DF91CF911F910F91FF90EF900895F8
S11328B0EF92FF920F931F93CF93DF9320917704AE
S11328C0309178042617370758F06115710539F4EB
S11328D0E8EEF0E020812E7720839B0101C09B016C
S11328E0E82FF92F90E0A8EEB0E062EF70E00F2E31
S11328F0F1EFEF2EF12CF02D11E000E030C08091CB
S11329007004882309F442C0853009F441C08C91D5
S113291083FD40C08C9182FD32C08C9180FF1FC02A
S1132920EB01488159812115310589F04830510561
S113293070F48491E70188833196215031094F5F07
S11329405F4F2115310519F04830510591F7912F4A
S11329504830510509F0902F8C918E778C93211576
S1132960310569F69111CBCF0AC080917004882398
S113297099F0853099F0808183FF03C011C0E8EE9F
S1132980F0E0808182FFF1CF80E00BC082E009C0DB
S113299083E007C081E005C082E003C083E001C09A
S11329A081E0DF91CF911F910F91FF90EF900895F7
S11329B08F929F92BF92CF92DF92EF92FF920F93EA
S11329C01F93CF93DF93873070F126C0292F2F7088
S11329D0E7012883891731F0E80178812081E40137
S11329E0588103C0242F762F5B2D21FF12C03C9108
S11329F03E7F3C9330813D7F30833C9131603C93FA
S1132A00E80178832083E4015883E60128812223A6
S1132A1044F49F5F9730D1F68F708093E90081E092
S1132A2021C080E01FC0982F9F709093E900982FD9
S1132A30242F762F50E0ABEEB0E0EDEEF0E00CEE9C
S1132A4010E00F2EF0EF8F2E912CF02D0F2EFEEEB6
S1132A50CF2ED12CF02D0F2EF9EEEF2EF12CF02DE0
S1132A60B12CC3CFDF91CF911F910F91FF90EF90C5
S1132A70DF90CF90BF909F908F90089580917104C4
S1132A80882344F0E8EEF0E014C0809170048111D2
S1132A9003C00895E8EEF0E0808182FFF6CFE8EE0F
S1132AA0F0E080818B77808308958091700488237F
S1132AB041F0808180FFF9CFE8EEF0E080818E77ED
S1132AC0808308950F931F93CF93DF932091E400A5
S1132AD03091E50065E6ACEEB0E0E8EEF0E00BEE38
S1132AE010E044EE50E001C09C019C91892F81705C
S1132AF090FD1DC020C080917004882381F0853032
S1132B0081F0E801888185FD0EC0EA018881998100
S1132B102817390751F3615039F784E00FC082E078
S1132B200DC083E00BC081E009C080E007C0808154
S1132B3080FFE1CFFACF908192FFDDCFDF91CF917B
S1132B401F910F9108950F931F93CF93DF934FD04D
S1132B5056D0C8EDD0E088818F77888388818068DB
S1132B60888388818F7D8883E7EDF0E080818068A9
S1132B70808319BC1092700410926C0410926E043D
S1132B8010926D0400EE10E0F80180818B7F808349
S1132B9088818160888342E060E080E009DFE1EEC3
S1132BA0F0E080818E7F8083E2EEF0E080818160BE
S1132BB08083808188608083F80180818E7F808318
S1132BC0888180618883DF91CF911F910F9108954F
S1132BD0E8EDF0E080818F7E8083E7EDF0E0808196
S1132BE08160808381E080936F04ADCF0895E8ED28
S1132BF0F0E080818C7F80831092E200089510922F
S1132C00DA001092E10008951F920F920FB60F920E
S1132C1011240BB60F922F933F934F935F936F93AF
S1132C207F938F939F93AF93BF93EF93FF93809181
S1132C30E10082FF0AC08091E20082FF06C0E1EE5B
S1132C40F0E080818B7F80836AD28091DA0080FFFC
S1132C501DC08091D80080FF19C0EAEDF0E08081AA
S1132C608E7F80838091D90080FF0CC084E189BD70
S1132C7086E189BD09B400FEFDCF81E08093700434
S1132C8032D404C019BC1092700432D48091E10093
S1132C9080FF16C08091E20080FF12C0E2EEF0E0F7
S1132CA080818E7F8083808180618083E8EDF0E085
S1132CB080818062808319BC85E0809370042FD268
S1132CC08091E10084FF2FC08091E20084FF2BC03B
S1132CD084E189BD86E189BD09B400FEFDCFE8ED3C
S1132CE0F0E080818F7D8083E1EEF0E080818F7E53
S1132CF08083E2EEF0E080818F7E8083808181603A
S1132D00808380916C04882321F084E08093700494
S1132D1009C08091E300882314F081E001C083E0BE
S1132D2080937004FCD18091E10083FF23C08091E3
S1132D30E20083FF1FC0E1EEF0E08081877F8083A3
S1132D4082E08093700410926C0480818E7F808373
S1132D50E2EEF0E080818E7F8083808180618083D9
S1132D6042E060E080E024DEE0EFF0E08081886013
S1132D708083D5D1FF91EF91BF91AF919F918F91B6
S1132D807F916F915F914F913F912F910F900BBE67
S1132D900F900FBE0F901F9018951F920F920FB6B1
S1132DA00F9211240BB60F92EF92FF920F931F9381
S1132DB02F933F934F935F936F937F938F939F933F
S1132DC0AF93BF93CF93DF93EF93FF93C091E90049
S1132DD0CF708091EC00D82FD17080FDD0E80F2EF9
S1132DE0F9EEEF2EF12CF02DF701108200EF10E038
S1132DF0F8018081877F8083789423D0F701108243
S1132E00F801808188608083CD2BCF70F701C08367
S1132E10FF91EF91DF91CF91BF91AF919F918F91EE
S1132E207F916F915F914F913F912F911F910F91DE
S1132E30FF90EF900F900BBE0F900FBE0F901F905E
S1132E4018950F931F93CF93DF93CDB7DEB7AA974F
S1132E500FB6F894DEBF0FBECDBFE1E7F4E029E77B
S1132E6034E0A1EFB0E08C9181932E173F07D9F79E
S1132E7061D38091E80083FF2DC1E1E7F4E0208174
S1132E803181832F90E08A30910508F023C1FC0141
S1132E90EA5AFF4F7CC6203821F0223809F01AC1C3
S1132EA008C080916D0490916E04992389F082602A
S1132EB00FC0809175048F70873008F00BC1E9EE64
S1132EC0F0E080838091EB0085FB882780F91082F5
S1132ED0E8EEF0E09081977F9083A1EFB0E08C93CF
S1132EE01C9280818E778083C9DDF4C0222309F48B
S1132EF000C1223009F0EEC001C181E0333009F095
S1132F0080E080936E042CC0809175048F709FEFD5
S1132F10980F963008F0DEC08093E9009091EB00A2
S1132F2090FF1EC090917204933031F4EBEEF0E008
S1132F3080818062808314C0EBEEF0E09081906128
S1132F40908321E030E0A90102C0440F551F8A9507
S1132F50E2F7AAEEB0E04C931C92808188608083F3
S1132F601092E900E8EEF0E08081877F808386DDBF
S1132F70B1C02111AFC0109173041F77E3EEF0E0EC
S1132F8080818078812B8083E8EEF0E08081877FE8
S1132F90808374DDE8EEF0E0808180FFFDCFE3EE16
S1132FA0F0E0808180688083111102C082E001C05A
S1132FB083E0809370048EC02058223008F08AC0C9
S1132FC080917304909174048C3D53E0950799F5B6
S1132FD083E08A838AE289835FB7F894DE011396DB
S1132FE020E03EE041E2E32FF0E04093570084917B
S1132FF020FF03C082958F703F5F8F708A3018F076
S113300090E0C79602C090E0C0968D939D932F5F89
S1133010243149F75FBF08EE10E0F8018081877F13
S113302080836AE270E0CE010196C3DBF8018081FF
S11330308B7780834FC06091750470917604AE01E4
S11330404F5F5F4FC2DABC01892B09F443C008EE1D
S113305010E0F8019081977F908389819A8128DC20
S1133060F80180818B77808335C0203899F5E8EEAC
S1133070F0E08081877F808380916C048093F100ED
S113308080818E778083FADC25C0211123C0809152
S113309073049091740499270297E4F4E8EEF0E045
S11330A08081877F80838091730480936C04E6DC45
S11330B080916C04882321F084E08093700409C01B
S11330C08091E300882314F081E001C084E08093C0
S11330D0700413D28091E80083FF16C0E8EEF0E09C
S11330E08081877F8083EBEEF0E080818062808343
S11330F00BC080917304813069F7FFCE8091730413
S1133100882309F401CF2CCFAA960FB6F894DEBF1A
S11331100FBECDBFDF91CF911F910F9108950895F8
S1133120CF9380917004882399F0C091E900CF7007
S11331308091EC00982F917080FD90E8C92B10923B
S1133140E9008091E80083FD7CDECF70C093E90044
S1133150CF910895089586E1EFECF2E0A5EFB5E094
S113316001900D928A95E1F70895CF93DF9300D0F3
S113317000D0CDB7DEB740E0BE016F5F7F4F0E9445
S1133180B50A81110BC08DE1E5EEF2E0A5EFB5E0E3
S113319001900D928A95E1F78FEF60C048B180915C
S11331A0F1059091F205A091F305B091F4058170B9
S11331B09927AA27B078BB2354F40197A109B10930
S11331C08E6F9F6FAF6FBF6F0196A11DB11D21E080
S11331D030E0B90102C0660F771F8A95E2F7CB0190
S11331E0942F987F892B88B92BB18091F105909108
S11331F0F205A091F305B091F40581709927AA27EF
S1133200B078BB2354F40197A109B1098E6F9F6F65
S1133210AF6FBF6F0196A11DB11D49815A814E5FE9
S11332205F4F04C0880F991FAA1FBB1F4A95D2F78E
S1133230287F822B8BB98BB11F928F9382E093E00E
S11332409F938F9385EF95E09F938F930E94E8213E
S11332500F900F900F900F900F900F900F900F9072
S11332600F900F90DF91CF91089540E061EF75E0EA
S11332700E94B50A81110AC08FE1EBE0F3E0A5EFEB
S1133280B5E001900D928A95E1F709C04AE065EF37
S113329075E08091F1059091F2050E94C5218FEFB0
S11332A0089525B181E090E002C0880F991F6A95C6
S11332B0E2F7822B85B9089585B121E030E002C0A0
S11332C0220F331F6A95E2F791E0232B09F090E077
S11332D0892385B908950F931F93CF93DF931F928A
S11332E0CDB7DEB78C0140E061EF75E00E94B50A0E
S11332F081110BC08FE1EBE0F3E0A5EFB5E00190A5
S11333000D928A95E1F78FEF35C040E0BE016F5F03
S11333107F4FC8010E94B80A81110BC08EE1EAE216
S1133320F3E0A5EFB5E001900D928A95E1F78FEFF8
S113333021C04AE065EF75E08091F1059091F205B6
S11333400E94C5218981882359F06091F10570910B
S1133350F2058091F3059091F405A3DF81E00AC0A2
S11333606091F1057091F2058091F3059091F40557
S1133370A3DF81E00F90DF91CF911F910F9108950A
S1133380CF92DF92EF92FF920F931F93DC01CB0158
S1133390880F991FAA1FBB1F6C017D01CC0CDD1C7B
S11333A0EE1CFF1CCC0CDD1CEE1CFF1C8C0D9D1DAB
S11333B0AE1DBF1D89019A01080F191F2A1F3B1F4B
S11333C068017901689412F8F594E794D794C79446
S11333D01694D1F781E090E002C0880F991FCA9437
S11333E0E2F782B96BB1D901C80187709927AA277E
S11333F0B078BB2354F40197A109B109886F9F6F7A
S1133400AF6FBF6F0196A11DB11D687F262F282BBA
S11334102BB91F910F91FF90EF90DF90CF900895FB
S1133420CF93DF9300D000D0CDB7DEB740E0BE012C
S11334306F5F7F4F0E94B50A81110BC08DE1E5EEED
S1133440F2E0A5EFB5E001900D928A95E1F78FEFD8
S11334501EC01F921F9282E093E09F938F9385EF8B
S113346095E09F938F93B4D729813A814B815C81F6
S11334706091F1057091F2058091F3059091F40546
S11334807FDF0F900F900F900F900F900F900F9081
S11334900F900F900F90DF91CF91089584B7877F9D
S11334A084BF0FB6F894A8958091600088618093DA
S11334B06000109260000FBE90E080E80FB6F894B0
S11334C080936100909361000FBE44DE8DB1806FE4
S11334D08DB98EB1806F8EB97BDB8FEF81B984B9E2
S11334E08AB98BB908958EB1806F8F798EB908959A
S11334F08EB1806F8F7E8EB90895CF9342E361ECD5
S113350082E056DAC82F42E361E883E051DAC82347
S113351042E360E884E04CDACC2311F0811102C06C
S113352080E501C080EA9EB1906F809589238EB9B1
S1133530CF910895CF93DF93E09172048E2F90E0A2
S1133540FC013197E730F10508F026C1E05AFF4F3E
S11335501EC380917104823A09F01EC180916104F6
S1133560811111C080915E0490E020917304309128
S113357074042817390749F481E080935F04809329
S1133580610491E003C093E801C091E8E8EEF0E043
S11335908081877F80839093F10080818E77808300
S11335A06DDAFAC080917104823A09F0F5C0809115
S11335B06104813041F480915F04811106C010924E
S11335C0610491E003C092E801C092E0C8EED0E04B
S11335D08881877F8883E1EFF0E0908310821082F6
S11335E020915C0430915D04C901A0E0B0E0208327
S11335F0492F5A2F6B2F77274083AD0166277727F2
S113360040838B2F9927AA27BB27808388818E77B5
S1133610888334DAC1C080917104823A09F0BCC055
S113362080916104811112C080915E0490E0209128
S11336307304309174042817390751F481E080939E
S1133640600483E08093610491E003C093E801C0C7
S113365091E8E8EEF0E08081877F8083A1EFB0E01D
S11336609C9380915E048C9380818E77808306DAAC
S113367093C080917104823A09F08EC080916104F4
S1133680833041F480916004811106C0109261047A
S113369091E003C092E801C092E0C8EED0E08881D6
S11336A0877F8883E1EFF0E090831082108220917D
S11336B05C0430915D04C901A0E0B0E02083492F8F
S11336C05A2F6B2F77274083AD01662777274083D6
S11336D08B2F9927AA27BB27808388818E7788839D
S11336E0CDD95AC080917104813A09F055C08091B6
S11336F06104882321F083E88093F10008C081E00D
S11337008093600480935F0485E080936104E8EE15
S1133710F0E08081877F808381E08093F100808165
S11337208E778083ABD938C080917104813AA1F53A
S113373080916104853061F48091600481110AC034
S113374080915F04811108C01092610491E005C06A
S113375092E803C092E001C092E0E8EEF0E08081DC
S1133760877F8083A1EFB0E09C931C9280818E7749
S1133770808384D911C080917104813A69F4C8EEC0
S1133780D0E08881877F888368E170E086E091E0FB
S113379010D888818B778883DF91CF910895CF9358
S11337A0DF93EC0145E050E068E473E0E0D5892B59
S11337B051F48EE0EEE4F3E0ACE1B4E001900D925C
S11337C08A95E1F723C047E050E06CE573E0CE0151
S11337D0CED5892B51F481E1E4E6F3E0ACE1B4E029
S11337E001900D928A95E1F711C047E050E065E73A
S11337F073E0CE01BCD5892B49F482E1EDE7F3E017
S1133800ACE1B4E001900D928A95E1F7DF91CF919C
S113381008958F929F92AF92BF92CF92DF92EF92D0
S1133820FF920F931F93CF93DF93EC011F9281E1DB
S11338308F938FEC95E09F938F9381E08F931F92EA
S11338400F2EFFEC8F2EF4E09F2EF02D0F2EFFE8AD
S1133850AF2EF3E0BF2EF02DC12CD12C0F2EF5E9A5
S1133860EF2EF3E0FF2EF02D01EA13E021EF31E01B
S113387042E654E06BEE73E089E794E00E94CA08E4
S1133880FE0101900020E9F73197AF014C1B5D0B5D
S1133890BE0189E794E00E94BA0D65EF75E08CE102
S11338A094E04AD5ECE1F4E001900020E9F7319787
S11338B0EC51F4401E2F0F900F900F900F900F902B
S11338C00F90E13408F010E4412F50E06CE174E013
S11338D0CE0139D585EF95E028D2812FDF91CF91A4
S11338E01F910F91FF90EF90DF90CF90BF90AF901A
S11338F09F908F9008950F931F93CF93DF9300D0E1
S1133900CDB7DEB724E02093E9002091E80022FF40
S113391022C08C011A82198204C090915F04911113
S11339201CC0AE014F5F5F4F6CE070E0C8010E94A5
S11339307D13853091F3F801918190935E04909109
S11339405F04911105C091E0811190E0892F01C0BD
S113395080E0817008C080E006C0F8018181809316
S11339605E0480E0F6CF0F900F90DF91CF911F910E
S11339700F9108950F931F93CF93DF9300D0CDB78A
S1133980DEB78C0180915E04F80181838095828387
S113399083E08093E9001A82198204C08091600454
S11339A0811113C0AE014F5F5F4F6CE070E0C8013E
S11339B00E942113853091F390916004911107C006
S11339C091E0811190E0892F03C080E001C080E084
S11339D081700F900F90DF91CF911F910F910895F7
S11339E0EF92FF920F931F93CF93DF93CDB7DEB780
S11339F0CC58D1090FB6F894DEBF0FBECDBF80916D
S1133A007004843009F077C0CE01019674DF8823F6
S1133A1009F46DC08EB1806F8F7D8EB9898181303C
S1133A2019F0823071F15AC010925D0410925C0456
S1133A306894EE24E7F8F12C00E010E004C08091D3
S1133A405F04811113C06D817E818F8198856138F7
S1133A5071058105910510F06E2D7F2D4CE554E024
S1133A60CE010D960E947D13853049F3E8EEF0E017
S1133A7080818B77808360915C04CE010D968FDE0C
S1133A8032C0E8EEF0E080818B778083CE010D9622
S1133A90C0DE90E0A0E0B0E08D839E83AF83B88762
S1133AA081E08987CE01019665DF10925D04109252
S1133AB05C0404C08091600481110AC06D817E8120
S1133AC04CE554E0CE010D960E942113853091F30C
S1133AD0E8EEF0E080818E77808305C0EBEEF0E0C5
S1133AE08081806280838EB1806F8F758EB91092D1
S1133AF0600410925F04C457DF4F0FB6F894DEBF22
S1133B000FBECDBFDF91CF911F910F91FF90EF902A
S1133B100895C4DC8EB1806F8F7E8EB9789460DF97
S1133B20FFDAFDCF97FB072E16F4009406D077FD3D
S1133B3008D036D007FC05D03EF4909581959F4F70
S1133B400895709561957F4F0895A1E21A2EAA1BDE
S1133B50BB1BFD010DC0AA1FBB1FEE1FFF1FA21739
S1133B60B307E407F50720F0A21BB30BE40BF50B36
S1133B70661F771F881F991F1A9469F760957095BF
S1133B80809590959B01AC01BD01CF010895EE0F86
S1133B90FF1F0024001C0BBE0790F691E02D099432
S1133BA0AA1BBB1B51E107C0AA1FBB1FA617B7075F
S1133BB010F0A61BB70B881F991F5A95A9F780957B
S1133BC09095BC01CD010895A29FB001B39FC0019F
S1133BD0A39F700D811D1124911DB29F700D811D35
S1133BE01124911D0895F0DFA59F900DB49F900DB1
S1133BF0A49F800D911D112408950F931F93CF93BB
S1133C00DF938230910510F482E090E0E091470662
S1133C10F091480620E030E0A0E0B0E0309719F1E0
S1133C20408151810281138148175907C8F08417D4
S1133C30950769F4109731F012960C931297139626
S1133C401C9327C0009347061093480622C02115F1
S1133C50310519F04217530718F49A01BD01EF0119
S1133C60DF01F801DBCF21153105F9F0281B390BF1
S1133C702430310580F48A819B816115710521F01E
S1133C80FB019383828304C0909348068093470684
S1133C90FE01329644C0FE01E20FF31F819391931B
S1133CA022503109398328833AC020914506309146
S1133CB04606232B41F420910201309103013093F5
S1133CC046062093450620910001309101012115FB
S1133CD0310541F42DB73EB74091040150910501DF
S1133CE0241B350BE0914506F0914606E217F307D5
S1133CF0A0F42E1B3F0B2817390778F0AC014E5F58
S1133D005F4F2417350748F04E0F5F1F5093460648
S1133D10409345068193919302C0E0E0F0E0CF0127
S1133D20DF91CF911F910F910895CF93DF93009767
S1133D3009F481C0FC01329713821282A0914706D4
S1133D40B0914806109781F420813181820F931F2E
S1133D5020914506309146062817390751F5F0930E
S1133D604606E093450667C0ED0120E030E0CE173B
S1133D70DF0740F44A815B819E0141155105F1F052
S1133D80EA01F5CFD383C28340815181840F951F0B
S1133D90C817D90759F488819981840F951F029611
S1133DA0918380838A819B8193838283211531054A
S1133DB029F4F0934806E09347063DC0E901FB83EC
S1133DC0EA8349915991C40FD51FEC17FD0761F49B
S1133DD080819181840F951F0296E90199838883DC
S1133DE0828193819B838A83E0E0F0E012968D9137
S1133DF09C911397009719F0FD01DC01F7CF8D9189
S1133E009C9111979D012E5F3F4F820F931F20912C
S1133E104506309146062817390769F4309729F486
S1133E20109248061092470602C013821282B09381
S1133E304606A0934506DF91CF9108953F924F9295
S1133E405F926F927F928F929F92AF92BF92CF9226
S1133E50DF92EF92FF920F931F93CF93DF935C0156
S1133E606B017A016115710519F0FB01918380835F
S1133E70E114F10429F0C7010297839708F0E2C026
S1133E80E5012196F5011081812F90E02BD2892B39
S1133E9011F05E01F5CF1D3229F42196F50111814F
S1133EA001E007C01B3221F4E5012296F5011181DE
S1133EB000E0E114F10409F1F0E1EF16F10429F452
S1133EC03EC010E3E114F10421F128E0E216F1040C
S1133ED001F154F4E2E0EE16F10421F5812C912C69
S1133EE0A12CB0E4BB2E3DC0FAE0EF16F10439F08A
S1133EF020E1E216F104B1F42FC0103311F1FAE01D
S1133F00EF2EF12CACEC8A2E982CA82CACE0BA2E17
S1133F1028C078E0E72EF12C812C912CA12CE0E133
S1133F20BE2E1FC060E070E080E090E897010F2C87
S1133F30000C440B550B09DE49015A0112C0103321
S1133F4059F488818F7D883509F0BBCF1981229679
S1133F50026080E1E82EF12C812C912CA12C68E0E8
S1133F60B62E40E060E070E0CB0127010F2C000C7E
S1133F7066087708FE0150ED352E310E29E0231531
S1133F8070F42FEB210F2A3118F439EC332E06C0CC
S1133F902FE9210F2A3110F529EA322E310E232D73
S1133FA030E02E153F05D4F447FD15C0861697065C
S1133FB0A806B90668F0A3019201F5D4630D711D3A
S1133FC0811D911D61307105810520E8920710F073
S1133FD04FEF01C041E021961081CCCF202F2170FA
S1133FE0C114D10471F0442329F02197F601D1833F
S1133FF0C08307C001FF19C02297F601D183C08393
S113400014C047FF12C0222329F060E070E080E072
S113401090E804C06FEF7FEF8FEF9FE722E230E07C
S113402030934A062093490609C0222381F09095D3
S11340308095709561957F4F8F4F9F4F462F372FF7
S1134040282F12C040E030E020E090E00DC097FF40
S1134050F5CF82E290E090934A06809349066FEF91
S11340607FEF8FEF9FE7EACF642F732F822FDF91CB
S1134070CF911F910F91FF90EF90DF90CF90BF9061
S1134080AF909F908F907F906F905F904F903F90F4
S113409008953F924F925F926F927F928F929F9278
S11340A0AF92BF92CF92DF92EF92FF920F931F9342
S11340B0CF93DF935C016B017A016115710519F0EF
S11340C0FB0191838083E114F10429F0C701029775
S11340D0839708F0C6C0E5012196F5011081812F70
S11340E090E000D1892B11F05E01F5CF1D3229F447
S11340F02196F501118101E007C01B3221F4E5018D
S11341002296F501118100E0E114F104B1F0F0E12F
S1134110EF16F10429F4AEC010E3E114F10401F147
S11341202AE0E216F104A9F180E1E816F10471F045
S1134130E8E0EE16F104F1F413C0103339F5888188
S11341408F7D883549F7198122960260F0E1EF2EC0
S1134150F12C88248A94982CA82CAFE0BA2E1FC086
S113416078E0E72EF12C88248A94982CA82CEFE18F
S1134170BE2E15C06FEF7FEFCB0197010F2C000C03
S1134180440B550BE2DC49015A0109C08AE0E82ED0
S1134190F12C69E9862E982CA82C69E1B62E40E012
S11341A060E070E0CB0127010F2C000C6608770853
S11341B0FE0150ED352E310E29E0231570F42FEB5E
S11341C0210F2A3118F439EC332E06C02FE9210FC0
S11341D02A3128F529EA322E310E232D30E02E150E
S11341E03F05ECF44F3FC1F086169706A806B906C2
S11341F080F0A3019201D7D3232D30E040E050E0BA
S1134200620F731F841F951F621773078407950736
S113421010F44FEF01C041E021961081C9CFC114C1
S1134220D10451F0442311F0219703C001FF04C0CD
S11342302297F601D183C08300FF07C09095809533
S1134240709561957F4F8F4F9F4F4F3F79F482E276
S113425090E090934A06809349063FEF2FEF9FEF3B
S11342600DC040E030E020E090E008C0462F372F3A
S1134270282F04C0103309F069CF61CF642F732F46
S1134280822FDF91CF911F910F91FF90EF90DF90DC
S1134290CF90BF90AF909F908F907F906F905F90E2
S11342A04F903F900895911106C080538A5010F0AA
S11342B0865C06C0089599278827089585FDFBCF5D
S11342C080629111F8CF81568A51E0F708959111D7
S11342D0F2CF80538A5028F0865C806281568650E3
S11342E0B8F708959111E7CF803219F089508550BD
S11342F0D0F708959111089581548A5108F4805E8D
S1134300855A0895FB01DC0102C001900D924150D1
S11343105040D8F708956817790768F4FB01DC0169
S1134320E40FF51FA40FB51F02C002900E92415076
S11343305040D8F70895E6CFFB01DC0101900D92BF
S11343400020E1F70895DC01FB014150504058F092
S113435049F001900D920020C1F7E61BF70B31974D
S1134360CF0108951C9201900020E9F7F6CFFB01DC
S1134370DC014150504030F08D910190801919F4C6
S11343800020B9F7881B990B0895BB274A3031F4F4
S1134390992322F4BDE2909581959F4F01C0BB27DC
S11343A0FB015527AA27880F991FAA1FA41710F0ED
S11343B0A41B83955051B9F7A05DAA3308F0A95DF9
S11343C0A193009779F7B111B1931192CB0141C236
S11343D00F931F93CF93DF93CDB7DEB72E970FB60E
S11343E0F894DEBF0FBECDBF0D891E8986E08C8395
S11343F01A8309838FEF9FE79E838D83AE01475E07
S11344005F4F6F89788DCE01019610D0EF81F885CA
S1134410E00FF11F10822E960FB6F894DEBF0FBE88
S1134420CDBFDF91CF911F910F9108952F923F92AD
S11344304F925F926F927F928F929F92AF92BF92B0
S1134440CF92DF92EF92FF920F931F93CF93DF935C
S1134450CDB7DEB72B970FB6F894DEBF0FBECDBF36
S11344606C017B018A01FC0117821682838181FF22
S1134470BFC1CE0101963C01F6019381F70193FD82
S1134480859193FF81917F01882309F4ADC1853221
S113449039F493FD859193FF81917F01853221F455
S11344A0B60190E0E6D1E8CF912C212C312CFFE12C
S11344B0F315D8F08B3279F038F4803279F0833206
S11344C0A1F4232D20611DC08D3261F0803369F485
S11344D0232D216016C0832D8260382EE32DE460E5
S11344E03E2E2AC0F32DF8601DC037FC2DC020EDF0
S11344F0280F2A3040F08E32B9F436FC75C1232DD2
S11345002064322E19C036FE06C08AE0989E200D23
S11345101124922E11C0EAE02E9E200D1124222E89
S1134520F32DF0623F2E08C08C3621F4832D806871
S1134530382E02C0883641F4F70193FD859193FF2C
S113454081917F018111B3CF982F9F7D9554933032
S113455028F40C5F1F4F9FE399830DC0833631F01D
S1134560833771F0833509F055C020C0F80180818C
S113457089830E5F1F4F88248394912C530112C0AA
S11345802801F2E04F0E511CF801A080B18036FEE4
S113459003C0692D70E002C06FEF7FEFC5014ED1FB
S11345A04C018201F32DFF773F2E15C0280122E034
S11345B0420E511CF801A080B18036FE03C0692D63
S11345C070E002C06FEF7FEFC5012DD14C01F32DD8
S11345D0F0683F2E820133FC19C0822D90E08816CA
S11345E09906A0F4B60180E290E043D12A94F5CF75
S11345F0F50137FC859137FE81915F01B60190E0AA
S113460038D121102A9421E0821A9108811491044E
S113461079F7E1C0843611F0893639F5F80137FEAF
S113462007C060817181828193810C5F1F4F08C034
S113463060817181072E000C880B990B0E5F1F4F50
S1134640F32DFF763F2E97FF09C0909580957095C6
S113465061957F4F8F4F9F4FF0683F2E2AE030E0E7
S1134660A30143D1882E861844C0853731F4232D05
S11346702F7EB22E2AE030E025C0932D997FB92EEB
S11346808F36C1F018F4883579F0AEC0803719F050
S1134690883721F0A9C0E92FE061BE2EB4FE0DC019
S11346A0FB2DF460BF2E09C034FE0AC0292F2660FA
S11346B0B22E06C028E030E005C020E130E002C0A0
S11346C020E132E0F801B7FE07C060817181828188
S11346D093810C5F1F4F06C06081718180E090E080
S11346E00E5F1F4FA30101D1882E8618FB2DFF7783
S11346F03F2E36FE0DC0232D2E7FA22E891458F492
S113470034FE0BC032FC09C0832D8E7EA82E05C05A
S1134710B82CA32C03C0B82C01C0B92CA4FE0FC024
S1134720FE01E80DF11D8081803321F49A2D997EDC
S1134730A92E09C0A2FE06C0B394B39404C08A2D66
S1134740867809F0B394A3FC10C0A0FE06C0B2148E
S113475080F4280C922C9B180DC0B21458F4B601A6
S113476080E290E086D0B394F8CFB21418F42B18FA
S113477002C0982C212CA4FE0FC0B60180E390E067
S113478078D0A2FE16C0A1FC03C088E790E002C066
S113479088E590E0B6010CC08A2D867851F0A1FE20
S11347A002C08BE201C080E2A7FC8DE2B60190E07A
S11347B060D0891430F4B60180E390E05AD09A9422
S11347C0F8CF8A94F301E80DF11D8081B60190E0E1
S11347D050D08110F6CF222009F44ECEB60180E2EB
S11347E090E047D02A94F7CFF6018681978102C0E2
S11347F08FEF9FEF2B960FB6F894DEBF0FBECDBFA1
S1134800DF91CF911F910F91FF90EF90DF90CF90A8
S1134810BF90AF909F908F907F906F905F904F90DC
S11348203F902F900895FC01059061507040011055
S1134830D8F7809590958E0F9F1F0895FC016150C5
S1134840704001900110D8F7809590958E0F9F1FAE
S11348500895DC01FC01672F71917723E1F732970A
S113486004C07C916D9370836291AE17BF07C8F347
S113487008950F931F93CF93DF93FB01238121FDB1
S113488003C08FEF9FEF2CC022FF16C046815781D3
S1134890248135814217530744F4A081B1819D01DD
S11348A02F5F3F4F318320838C93268137812F5F85
S11348B03F4F3783268314C08B01EC01FB01008436
S11348C0F185E02D0995892BE1F6D80116968D9195
S11348D09C911797019617969C938E931697CE01E9
S11348E0DF91CF911F910F910895FA01AA272830E3
S11348F051F1203181F1E8946F936E7F6E5F7F4FA9
S11349008F4F9F4FAF4FB1E03ED0B4E03CD0670F24
S1134910781F891F9A1FA11D680F791F8A1F911D77
S1134920A11D6A0F711D811D911DA11D20D009F4C7
S113493068943F912AE0269F11243019305D319309
S1134940DEF6CF010895462F4770405D4193B3E0F2
S11349500FD0C9F7F6CF462F4F70405D4A3318F099
S1134960495D31FD4052419302D0A9F7EACFB4E04A
S1134970A6959795879577956795BA95C9F7009702
S11349806105710508959B01AC010A2E06945795A3
S1134990479537952795BA95C9F7620F731F841FFA
S11349A0951FA01D0895DB018F939F931CD9BF9180
S11349B0AF91A29F800D911DA39F900DB29F900D6A
S10B49C011240895F894FFCFBF
S11349C800004B0620000100000100000000000068
S11349D800000000000000000000000000009CFF30
S11349E839FF200038FFD5FE1000D4FE71FE080000
S11349F80100FF7F080070FE0DFE04000CFEA9FDF7
S1134A088000A8FD45FD400044FDE1FC0200E0FCF7
S1134A187DFC01002C00234200234800235100227E
S1134A28003B000D0A008B03000000007203010024
S1134A3800000000FFFFFFFF20004D494E696D751F
S1134A486D004D4158696D756D0044454661756C3E
S1134A587400555000444F574E004E414E00494E85
S1134A6846696E697479004E494E46004155544F63
S1134A78005046005546004D46005541004D410042
S1134A884B41005556004D56004B56004B4F484D70
S1134A98004D4F484D005548004D48004B485A00BA
S1134AA84D485A0047485A0044424D0044424D5725
S1134AB800B10111CCBC8C2BA901115F708930B4F1
S1134AC80111BD378635B701116F12833ABD021142
S1134AD80000803FBA0102BD378635BD01026F125E
S1134AE8833AC101020000803FC0010200007A44F9
S1134AF8C30101BD378635C601016F12833ACA0165
S1134B08010000803FC9010100007A44CD0103007F
S1134B1800803FCC010300007A44D10103002474CF
S1134B2849D60118BD378635D901186F12833A5A08
S1134B3801180000803FE501040000803FDC010407
S1134B4800007A44E0010400247449E40104286B59
S1134B586E4EEF01250000803FE801260000803FEB
S1134B68EC01260000803F00000000000000303106
S1134B783233343536373839414243444546003FA9
S1134B883A5B5D003A3F006E616E00696E660058DC
S1134B984952474F2054454348205155414C2049D8
S1134BA84E53545200506C6561736520456E7465AC
S1134BB8722054686520506F7274204E756D62655A
S1134BC8720068656C6C6F20256E00506C656173AB
S1134BD86520456E7465722054686520446576695D
S1134BE86365204E756D62657200506C656173650E
S1134BF820456E746572205468652044657669633F
S1134C0865205374617465002A49444E3F004C552D
S1134C18464120544D432044454D4F0052454C3A9B
S1134C28313A3100444556494345204F4E452049C1
S1134C3853204F4E0052454C3A313A3000444556C1
S1134C48494345204F4E45204953204F4646005876
S1134C58545F5154005155414C5F54455354455287
S1134C6800584952474F2054454348004445566923
S1134C7863653A504F576572004445566963653A0F
S1134C8853454C004445566963653A494E3A504F7A
S1134C9852743A53454C004445566963653A4F5536
S1134CA8543A504F52743A53454C004803AB1800D9
S1134CB8000000AC036B1900000000B903351900AB
S1134CC8000000C403101A00000000D703B5180040
S10F4CD8000000000000000000000000CC
S9030000FC
